{
  "_format": "hh-sol-artifact-1",
  "contractName": "Reporter",
  "sourceName": "contracts/Reporter.sol",
  "abi": [
    {
      "inputs": [
        {
          "internalType": "address",
          "name": "_tellorAddress",
          "type": "address"
        },
        {
          "internalType": "uint256",
          "name": "_profitThreshold",
          "type": "uint256"
        }
      ],
      "stateMutability": "nonpayable",
      "type": "constructor"
    },
    {
      "inputs": [
        {
          "internalType": "address",
          "name": "_newOwner",
          "type": "address"
        }
      ],
      "name": "changeOwner",
      "outputs": [],
      "stateMutability": "nonpayable",
      "type": "function"
    },
    {
      "inputs": [],
      "name": "depositStake",
      "outputs": [],
      "stateMutability": "nonpayable",
      "type": "function"
    },
    {
      "inputs": [],
      "name": "oracle",
      "outputs": [
        {
          "internalType": "contract ITellor",
          "name": "",
          "type": "address"
        }
      ],
      "stateMutability": "view",
      "type": "function"
    },
    {
      "inputs": [],
      "name": "owner",
      "outputs": [
        {
          "internalType": "address",
          "name": "",
          "type": "address"
        }
      ],
      "stateMutability": "view",
      "type": "function"
    },
    {
      "inputs": [],
      "name": "profitThreshold",
      "outputs": [
        {
          "internalType": "uint256",
          "name": "",
          "type": "uint256"
        }
      ],
      "stateMutability": "view",
      "type": "function"
    },
    {
      "inputs": [],
      "name": "requestStakingWithdraw",
      "outputs": [],
      "stateMutability": "nonpayable",
      "type": "function"
    },
    {
      "inputs": [
        {
          "internalType": "bytes32",
          "name": "_queryId",
          "type": "bytes32"
        },
        {
          "internalType": "bytes",
          "name": "_value",
          "type": "bytes"
        },
        {
          "internalType": "uint256",
          "name": "_nonce",
          "type": "uint256"
        },
        {
          "internalType": "bytes",
          "name": "_queryData",
          "type": "bytes"
        }
      ],
      "name": "submitValue",
      "outputs": [],
      "stateMutability": "nonpayable",
      "type": "function"
    },
    {
      "inputs": [
        {
          "internalType": "bytes32",
          "name": "_queryId",
          "type": "bytes32"
        },
        {
          "internalType": "bytes",
          "name": "_value",
          "type": "bytes"
        },
        {
          "internalType": "uint256",
          "name": "_nonce",
          "type": "uint256"
        },
        {
          "internalType": "bytes",
          "name": "_queryData",
          "type": "bytes"
        }
      ],
      "name": "submitValueBypass",
      "outputs": [],
      "stateMutability": "nonpayable",
      "type": "function"
    },
    {
      "inputs": [],
      "name": "tellor",
      "outputs": [
        {
          "internalType": "contract ITellor",
          "name": "",
          "type": "address"
        }
      ],
      "stateMutability": "view",
      "type": "function"
    },
    {
      "inputs": [
        {
          "internalType": "address",
          "name": "_to",
          "type": "address"
        },
        {
          "internalType": "uint256",
          "name": "_amount",
          "type": "uint256"
        }
      ],
      "name": "transfer",
      "outputs": [],
      "stateMutability": "nonpayable",
      "type": "function"
    },
    {
      "inputs": [],
      "name": "withdrawStake",
      "outputs": [],
      "stateMutability": "nonpayable",
      "type": "function"
    }
  ],
  "bytecode": "0x60806040523480156200001157600080fd5b506040516200129c3803806200129c833981810160405281019062000037919062000230565b816000806101000a81548173ffffffffffffffffffffffffffffffffffffffff021916908373ffffffffffffffffffffffffffffffffffffffff16021790555060008054906101000a900473ffffffffffffffffffffffffffffffffffffffff1673ffffffffffffffffffffffffffffffffffffffff1663133bee5e7ffa522e460446113e8fd353d7fa015625a68bc0369712213a42e006346440891e6040518263ffffffff1660e01b8152600401620000f2919062000282565b60206040518083038186803b1580156200010b57600080fd5b505afa15801562000120573d6000803e3d6000fd5b505050506040513d601f19601f8201168201806040525081019062000146919062000204565b600160006101000a81548173ffffffffffffffffffffffffffffffffffffffff021916908373ffffffffffffffffffffffffffffffffffffffff16021790555033600260006101000a81548173ffffffffffffffffffffffffffffffffffffffff021916908373ffffffffffffffffffffffffffffffffffffffff16021790555080600381905550505062000346565b600081519050620001e78162000312565b92915050565b600081519050620001fe816200032c565b92915050565b6000602082840312156200021757600080fd5b60006200022784828501620001d6565b91505092915050565b600080604083850312156200024457600080fd5b60006200025485828601620001d6565b92505060206200026785828601620001ed565b9150509250929050565b6200027c81620002e7565b82525050565b600060208201905062000299600083018462000271565b92915050565b6000620002ac82620002bd565b9050919050565b6000819050919050565b600073ffffffffffffffffffffffffffffffffffffffff82169050919050565b6000819050919050565b6000620002fe620002f883620002b3565b62000305565b9050919050565b60008160001b9050919050565b6200031d816200029f565b81146200032957600080fd5b50565b6200033781620002dd565b81146200034357600080fd5b50565b610f4680620003566000396000f3fe608060405234801561001057600080fd5b50600436106100a95760003560e01c80637dc0d1d0116100715780637dc0d1d0146101185780638da5cb5b14610136578063a6f9dae114610154578063a9059cbb14610170578063bed9d8611461018c578063f974821a14610196576100a9565b80630d2d76a2146100ae5780631959ad5b146100b857806328449c3a146100d65780634546e6b6146100e05780635eaa9ced146100fc575b600080fd5b6100b66101b4565b005b6100c0610236565b6040516100cd9190610c1a565b60405180910390f35b6100de61025a565b005b6100fa60048036038101906100f591906109de565b61036c565b005b610116600480360381019061011191906109de565b610405565b005b610120610595565b60405161012d9190610c1a565b60405180910390f35b61013e6105bb565b60405161014b9190610b68565b60405180910390f35b61016e60048036038101906101699190610950565b6105e1565b005b61018a60048036038101906101859190610979565b6106b5565b005b6101946107f7565b005b61019e610879565b6040516101ab9190610c75565b60405180910390f35b60008054906101000a900473ffffffffffffffffffffffffffffffffffffffff1673ffffffffffffffffffffffffffffffffffffffff16630d2d76a26040518163ffffffff1660e01b8152600401600060405180830381600087803b15801561021c57600080fd5b505af1158015610230573d6000803e3d6000fd5b50505050565b60008054906101000a900473ffffffffffffffffffffffffffffffffffffffff1681565b600260009054906101000a900473ffffffffffffffffffffffffffffffffffffffff1673ffffffffffffffffffffffffffffffffffffffff163373ffffffffffffffffffffffffffffffffffffffff16146102ea576040517f08c379a00000000000000000000000000000000000000000000000000000000081526004016102e190610c35565b60405180910390fd5b60008054906101000a900473ffffffffffffffffffffffffffffffffffffffff1673ffffffffffffffffffffffffffffffffffffffff166328449c3a6040518163ffffffff1660e01b8152600401600060405180830381600087803b15801561035257600080fd5b505af1158015610366573d6000803e3d6000fd5b50505050565b600160009054906101000a900473ffffffffffffffffffffffffffffffffffffffff1673ffffffffffffffffffffffffffffffffffffffff16635eaa9ced858585856040518563ffffffff1660e01b81526004016103cd9493929190610bc7565b600060405180830381600087803b1580156103e757600080fd5b505af11580156103fb573d6000803e3d6000fd5b5050505050505050565b6000600160009054906101000a900473ffffffffffffffffffffffffffffffffffffffff1673ffffffffffffffffffffffffffffffffffffffff1663a1e588a5866040518263ffffffff1660e01b81526004016104629190610bac565b604080518083038186803b15801561047957600080fd5b505afa15801561048d573d6000803e3d6000fd5b505050506040513d601f19601f820116820180604052508101906104b19190610a71565b90508091505060035481116104fb576040517f08c379a00000000000000000000000000000000000000000000000000000000081526004016104f290610c55565b60405180910390fd5b600160009054906101000a900473ffffffffffffffffffffffffffffffffffffffff1673ffffffffffffffffffffffffffffffffffffffff16635eaa9ced868686866040518563ffffffff1660e01b815260040161055c9493929190610bc7565b600060405180830381600087803b15801561057657600080fd5b505af115801561058a573d6000803e3d6000fd5b505050505050505050565b600160009054906101000a900473ffffffffffffffffffffffffffffffffffffffff1681565b600260009054906101000a900473ffffffffffffffffffffffffffffffffffffffff1681565b600260009054906101000a900473ffffffffffffffffffffffffffffffffffffffff1673ffffffffffffffffffffffffffffffffffffffff163373ffffffffffffffffffffffffffffffffffffffff1614610671576040517f08c379a000000000000000000000000000000000000000000000000000000000815260040161066890610c35565b60405180910390fd5b80600260006101000a81548173ffffffffffffffffffffffffffffffffffffffff021916908373ffffffffffffffffffffffffffffffffffffffff16021790555050565b600260009054906101000a900473ffffffffffffffffffffffffffffffffffffffff1673ffffffffffffffffffffffffffffffffffffffff163373ffffffffffffffffffffffffffffffffffffffff1614610745576040517f08c379a000000000000000000000000000000000000000000000000000000000815260040161073c90610c35565b60405180910390fd5b60008054906101000a900473ffffffffffffffffffffffffffffffffffffffff1673ffffffffffffffffffffffffffffffffffffffff1663a9059cbb83836040518363ffffffff1660e01b81526004016107a0929190610b83565b602060405180830381600087803b1580156107ba57600080fd5b505af11580156107ce573d6000803e3d6000fd5b505050506040513d601f19601f820116820180604052508101906107f291906109b5565b505050565b60008054906101000a900473ffffffffffffffffffffffffffffffffffffffff1673ffffffffffffffffffffffffffffffffffffffff1663bed9d8616040518163ffffffff1660e01b8152600401600060405180830381600087803b15801561085f57600080fd5b505af1158015610873573d6000803e3d6000fd5b50505050565b60035481565b600061089261088d84610cb5565b610c90565b9050828152602081018484840111156108aa57600080fd5b6108b5848285610d89565b509392505050565b6000813590506108cc81610eb4565b92915050565b6000815190506108e181610ecb565b92915050565b6000813590506108f681610ee2565b92915050565b600082601f83011261090d57600080fd5b813561091d84826020860161087f565b91505092915050565b60008135905061093581610ef9565b92915050565b60008151905061094a81610ef9565b92915050565b60006020828403121561096257600080fd5b6000610970848285016108bd565b91505092915050565b6000806040838503121561098c57600080fd5b600061099a858286016108bd565b92505060206109ab85828601610926565b9150509250929050565b6000602082840312156109c757600080fd5b60006109d5848285016108d2565b91505092915050565b600080600080608085870312156109f457600080fd5b6000610a02878288016108e7565b945050602085013567ffffffffffffffff811115610a1f57600080fd5b610a2b878288016108fc565b9350506040610a3c87828801610926565b925050606085013567ffffffffffffffff811115610a5957600080fd5b610a65878288016108fc565b91505092959194509250565b60008060408385031215610a8457600080fd5b6000610a928582860161093b565b9250506020610aa38582860161093b565b9150509250929050565b610ab681610d13565b82525050565b610ac581610d31565b82525050565b6000610ad682610ce6565b610ae08185610cf1565b9350610af0818560208601610d98565b610af981610e2b565b840191505092915050565b610b0d81610d65565b82525050565b6000610b20602283610d02565b9150610b2b82610e3c565b604082019050919050565b6000610b43601883610d02565b9150610b4e82610e8b565b602082019050919050565b610b6281610d5b565b82525050565b6000602082019050610b7d6000830184610aad565b92915050565b6000604082019050610b986000830185610aad565b610ba56020830184610b59565b9392505050565b6000602082019050610bc16000830184610abc565b92915050565b6000608082019050610bdc6000830187610abc565b8181036020830152610bee8186610acb565b9050610bfd6040830185610b59565b8181036060830152610c0f8184610acb565b905095945050505050565b6000602082019050610c2f6000830184610b04565b92915050565b60006020820190508181036000830152610c4e81610b13565b9050919050565b60006020820190508181036000830152610c6e81610b36565b9050919050565b6000602082019050610c8a6000830184610b59565b92915050565b6000610c9a610cab565b9050610ca68282610dcb565b919050565b6000604051905090565b600067ffffffffffffffff821115610cd057610ccf610dfc565b5b610cd982610e2b565b9050602081019050919050565b600081519050919050565b600082825260208201905092915050565b600082825260208201905092915050565b6000610d1e82610d3b565b9050919050565b60008115159050919050565b6000819050919050565b600073ffffffffffffffffffffffffffffffffffffffff82169050919050565b6000819050919050565b6000610d7082610d77565b9050919050565b6000610d8282610d3b565b9050919050565b82818337600083830152505050565b60005b83811015610db6578082015181840152602081019050610d9b565b83811115610dc5576000848401525b50505050565b610dd482610e2b565b810181811067ffffffffffffffff82111715610df357610df2610dfc565b5b80604052505050565b7f4e487b7100000000000000000000000000000000000000000000000000000000600052604160045260246000fd5b6000601f19601f8301169050919050565b7f4f6e6c79206f776e65722063616e2063616c6c20746869732066756e6374696f60008201527f6e2e000000000000000000000000000000000000000000000000000000000000602082015250565b7f70726f666974207468726573686f6c64206e6f74206d65740000000000000000600082015250565b610ebd81610d13565b8114610ec857600080fd5b50565b610ed481610d25565b8114610edf57600080fd5b50565b610eeb81610d31565b8114610ef657600080fd5b50565b610f0281610d5b565b8114610f0d57600080fd5b5056fea2646970667358221220706bd273aa32a2336782446ab80f69639ff2afcbd5f372b58982640e2b271cd364736f6c63430008030033",
  "linkReferences": {},
  "deployedLinkReferences": {}
}