{
  "_format": "hh-sol-artifact-1",
  "contractName": "Reporter",
  "sourceName": "contracts/Reporter.sol",
  "abi": [
    {
      "inputs": [
        {
          "internalType": "address",
          "name": "_tellorAddress",
          "type": "address"
        },
        {
          "internalType": "uint256",
          "name": "_profitThreshold",
          "type": "uint256"
        }
      ],
      "stateMutability": "nonpayable",
      "type": "constructor"
    },
    {
      "inputs": [
        {
          "internalType": "address",
          "name": "_newOwner",
          "type": "address"
        }
      ],
      "name": "changeOwner",
      "outputs": [],
      "stateMutability": "nonpayable",
      "type": "function"
    },
    {
      "inputs": [],
      "name": "depositStake",
      "outputs": [],
      "stateMutability": "nonpayable",
      "type": "function"
    },
    {
      "inputs": [],
      "name": "oracle",
      "outputs": [
        {
          "internalType": "contract ITellor",
          "name": "",
          "type": "address"
        }
      ],
      "stateMutability": "view",
      "type": "function"
    },
    {
      "inputs": [],
      "name": "owner",
      "outputs": [
        {
          "internalType": "address",
          "name": "",
          "type": "address"
        }
      ],
      "stateMutability": "view",
      "type": "function"
    },
    {
      "inputs": [],
      "name": "profitThreshold",
      "outputs": [
        {
          "internalType": "uint256",
          "name": "",
          "type": "uint256"
        }
      ],
      "stateMutability": "view",
      "type": "function"
    },
    {
      "inputs": [],
      "name": "requestStakingWithdraw",
      "outputs": [],
      "stateMutability": "nonpayable",
      "type": "function"
    },
    {
      "inputs": [
        {
          "internalType": "bytes32",
          "name": "_queryId",
          "type": "bytes32"
        },
        {
          "internalType": "bytes",
          "name": "_value",
          "type": "bytes"
        },
        {
          "internalType": "uint256",
          "name": "_nonce",
          "type": "uint256"
        },
        {
          "internalType": "bytes",
          "name": "_queryData",
          "type": "bytes"
        }
      ],
      "name": "submitValue",
      "outputs": [],
      "stateMutability": "nonpayable",
      "type": "function"
    },
    {
      "inputs": [
        {
          "internalType": "bytes32",
          "name": "_queryId",
          "type": "bytes32"
        },
        {
          "internalType": "bytes",
          "name": "_value",
          "type": "bytes"
        },
        {
          "internalType": "uint256",
          "name": "_nonce",
          "type": "uint256"
        },
        {
          "internalType": "bytes",
          "name": "_queryData",
          "type": "bytes"
        }
      ],
      "name": "submitValueBypass",
      "outputs": [],
      "stateMutability": "nonpayable",
      "type": "function"
    },
    {
      "inputs": [],
      "name": "tellor",
      "outputs": [
        {
          "internalType": "contract ITellor",
          "name": "",
          "type": "address"
        }
      ],
      "stateMutability": "view",
      "type": "function"
    },
    {
      "inputs": [
        {
          "internalType": "address",
          "name": "_to",
          "type": "address"
        },
        {
          "internalType": "uint256",
          "name": "_amount",
          "type": "uint256"
        }
      ],
      "name": "transfer",
      "outputs": [],
      "stateMutability": "nonpayable",
      "type": "function"
    },
    {
      "inputs": [],
      "name": "withdrawStake",
      "outputs": [],
      "stateMutability": "nonpayable",
      "type": "function"
    }
  ],
  "bytecode": "0x60806040523480156200001157600080fd5b506040516200105a3803806200105a833981810160405281019062000037919062000230565b816000806101000a81548173ffffffffffffffffffffffffffffffffffffffff021916908373ffffffffffffffffffffffffffffffffffffffff16021790555060008054906101000a900473ffffffffffffffffffffffffffffffffffffffff1673ffffffffffffffffffffffffffffffffffffffff1663133bee5e7ffa522e460446113e8fd353d7fa015625a68bc0369712213a42e006346440891e6040518263ffffffff1660e01b8152600401620000f2919062000282565b60206040518083038186803b1580156200010b57600080fd5b505afa15801562000120573d6000803e3d6000fd5b505050506040513d601f19601f8201168201806040525081019062000146919062000204565b600160006101000a81548173ffffffffffffffffffffffffffffffffffffffff021916908373ffffffffffffffffffffffffffffffffffffffff16021790555033600260006101000a81548173ffffffffffffffffffffffffffffffffffffffff021916908373ffffffffffffffffffffffffffffffffffffffff16021790555080600381905550505062000346565b600081519050620001e78162000312565b92915050565b600081519050620001fe816200032c565b92915050565b6000602082840312156200021757600080fd5b60006200022784828501620001d6565b91505092915050565b600080604083850312156200024457600080fd5b60006200025485828601620001d6565b92505060206200026785828601620001ed565b9150509250929050565b6200027c81620002e7565b82525050565b600060208201905062000299600083018462000271565b92915050565b6000620002ac82620002bd565b9050919050565b6000819050919050565b600073ffffffffffffffffffffffffffffffffffffffff82169050919050565b6000819050919050565b6000620002fe620002f883620002b3565b62000305565b9050919050565b60008160001b9050919050565b6200031d816200029f565b81146200032957600080fd5b50565b6200033781620002dd565b81146200034357600080fd5b50565b610d0480620003566000396000f3fe608060405234801561001057600080fd5b50600436106100a95760003560e01c80637dc0d1d0116100715780637dc0d1d0146101185780638da5cb5b14610136578063a6f9dae114610154578063a9059cbb14610170578063bed9d8611461018c578063f974821a14610196576100a9565b80630d2d76a2146100ae5780631959ad5b146100b857806328449c3a146100d65780634546e6b6146100e05780635eaa9ced146100fc575b600080fd5b6100b66101b4565b005b6100c0610236565b6040516100cd9190610a47565b60405180910390f35b6100de61025a565b005b6100fa60048036038101906100f5919061082e565b6102dc565b005b6101166004803603810190610111919061082e565b610375565b005b610120610505565b60405161012d9190610a47565b60405180910390f35b61013e61052b565b60405161014b9190610995565b60405180910390f35b61016e600480360381019061016991906107a0565b610551565b005b61018a600480360381019061018591906107c9565b610595565b005b610194610647565b005b61019e6106c9565b6040516101ab9190610a82565b60405180910390f35b60008054906101000a900473ffffffffffffffffffffffffffffffffffffffff1673ffffffffffffffffffffffffffffffffffffffff16630d2d76a26040518163ffffffff1660e01b8152600401600060405180830381600087803b15801561021c57600080fd5b505af1158015610230573d6000803e3d6000fd5b50505050565b60008054906101000a900473ffffffffffffffffffffffffffffffffffffffff1681565b60008054906101000a900473ffffffffffffffffffffffffffffffffffffffff1673ffffffffffffffffffffffffffffffffffffffff166328449c3a6040518163ffffffff1660e01b8152600401600060405180830381600087803b1580156102c257600080fd5b505af11580156102d6573d6000803e3d6000fd5b50505050565b600160009054906101000a900473ffffffffffffffffffffffffffffffffffffffff1673ffffffffffffffffffffffffffffffffffffffff16635eaa9ced858585856040518563ffffffff1660e01b815260040161033d94939291906109f4565b600060405180830381600087803b15801561035757600080fd5b505af115801561036b573d6000803e3d6000fd5b5050505050505050565b6000600160009054906101000a900473ffffffffffffffffffffffffffffffffffffffff1673ffffffffffffffffffffffffffffffffffffffff1663a1e588a5866040518263ffffffff1660e01b81526004016103d291906109d9565b604080518083038186803b1580156103e957600080fd5b505afa1580156103fd573d6000803e3d6000fd5b505050506040513d601f19601f8201168201806040525081019061042191906108c1565b905080915050600354811161046b576040517f08c379a000000000000000000000000000000000000000000000000000000000815260040161046290610a62565b60405180910390fd5b600160009054906101000a900473ffffffffffffffffffffffffffffffffffffffff1673ffffffffffffffffffffffffffffffffffffffff16635eaa9ced868686866040518563ffffffff1660e01b81526004016104cc94939291906109f4565b600060405180830381600087803b1580156104e657600080fd5b505af11580156104fa573d6000803e3d6000fd5b505050505050505050565b600160009054906101000a900473ffffffffffffffffffffffffffffffffffffffff1681565b600260009054906101000a900473ffffffffffffffffffffffffffffffffffffffff1681565b80600260006101000a81548173ffffffffffffffffffffffffffffffffffffffff021916908373ffffffffffffffffffffffffffffffffffffffff16021790555050565b60008054906101000a900473ffffffffffffffffffffffffffffffffffffffff1673ffffffffffffffffffffffffffffffffffffffff1663a9059cbb83836040518363ffffffff1660e01b81526004016105f09291906109b0565b602060405180830381600087803b15801561060a57600080fd5b505af115801561061e573d6000803e3d6000fd5b505050506040513d601f19601f820116820180604052508101906106429190610805565b505050565b60008054906101000a900473ffffffffffffffffffffffffffffffffffffffff1673ffffffffffffffffffffffffffffffffffffffff1663bed9d8616040518163ffffffff1660e01b8152600401600060405180830381600087803b1580156106af57600080fd5b505af11580156106c3573d6000803e3d6000fd5b50505050565b60035481565b60006106e26106dd84610ac2565b610a9d565b9050828152602081018484840111156106fa57600080fd5b610705848285610b96565b509392505050565b60008135905061071c81610c72565b92915050565b60008151905061073181610c89565b92915050565b60008135905061074681610ca0565b92915050565b600082601f83011261075d57600080fd5b813561076d8482602086016106cf565b91505092915050565b60008135905061078581610cb7565b92915050565b60008151905061079a81610cb7565b92915050565b6000602082840312156107b257600080fd5b60006107c08482850161070d565b91505092915050565b600080604083850312156107dc57600080fd5b60006107ea8582860161070d565b92505060206107fb85828601610776565b9150509250929050565b60006020828403121561081757600080fd5b600061082584828501610722565b91505092915050565b6000806000806080858703121561084457600080fd5b600061085287828801610737565b945050602085013567ffffffffffffffff81111561086f57600080fd5b61087b8782880161074c565b935050604061088c87828801610776565b925050606085013567ffffffffffffffff8111156108a957600080fd5b6108b58782880161074c565b91505092959194509250565b600080604083850312156108d457600080fd5b60006108e28582860161078b565b92505060206108f38582860161078b565b9150509250929050565b61090681610b20565b82525050565b61091581610b3e565b82525050565b600061092682610af3565b6109308185610afe565b9350610940818560208601610ba5565b61094981610c38565b840191505092915050565b61095d81610b72565b82525050565b6000610970601883610b0f565b915061097b82610c49565b602082019050919050565b61098f81610b68565b82525050565b60006020820190506109aa60008301846108fd565b92915050565b60006040820190506109c560008301856108fd565b6109d26020830184610986565b9392505050565b60006020820190506109ee600083018461090c565b92915050565b6000608082019050610a09600083018761090c565b8181036020830152610a1b818661091b565b9050610a2a6040830185610986565b8181036060830152610a3c818461091b565b905095945050505050565b6000602082019050610a5c6000830184610954565b92915050565b60006020820190508181036000830152610a7b81610963565b9050919050565b6000602082019050610a976000830184610986565b92915050565b6000610aa7610ab8565b9050610ab38282610bd8565b919050565b6000604051905090565b600067ffffffffffffffff821115610add57610adc610c09565b5b610ae682610c38565b9050602081019050919050565b600081519050919050565b600082825260208201905092915050565b600082825260208201905092915050565b6000610b2b82610b48565b9050919050565b60008115159050919050565b6000819050919050565b600073ffffffffffffffffffffffffffffffffffffffff82169050919050565b6000819050919050565b6000610b7d82610b84565b9050919050565b6000610b8f82610b48565b9050919050565b82818337600083830152505050565b60005b83811015610bc3578082015181840152602081019050610ba8565b83811115610bd2576000848401525b50505050565b610be182610c38565b810181811067ffffffffffffffff82111715610c0057610bff610c09565b5b80604052505050565b7f4e487b7100000000000000000000000000000000000000000000000000000000600052604160045260246000fd5b6000601f19601f8301169050919050565b7f70726f666974207468726573686f6c64206e6f74206d65740000000000000000600082015250565b610c7b81610b20565b8114610c8657600080fd5b50565b610c9281610b32565b8114610c9d57600080fd5b50565b610ca981610b3e565b8114610cb457600080fd5b50565b610cc081610b68565b8114610ccb57600080fd5b5056fea26469706673582212209ea3769515a39720cf8d906918c7cadf99ba6fa282f7b16920f6b3f33b4fff6664736f6c63430008030033",
  "linkReferences": {},
  "deployedLinkReferences": {}
}